:020000040800F2
:100000000050002085370008E1040008E5040008DE
:10001000E9040008ED040008F104000800000000F5
:10002000000000000000000000000000F5040008CF
:10003000F904000800000000FD04000801050008A4
:10004000CD370008CD370008CD370008CD37000880
:10005000CD370008CD370008CD370008CD37000870
:10006000CD370008CD370008CD370008CD37000860
:10007000CD370008CD370008CD370008CD37000850
:10008000CD370008CD370008CD370008CD37000840
:100090000D050008CD370008CD370008CD37000822
:1000A000CD370008CD370008CD370008CD37000820
:1000B0001D050008CD370008CD370008CD370008F2
:1000C000CD370008CD370008CD370008CD37000800
:1000D000CD370008CD370008CD370008CD370008F0
:1000E000CD370008CD370008CD37000800000000EC
:1000F0000000000000000000000000000000000000
:0C01000000000000000000005FF808F1A3
:10010C0010B5054C237833B9044B13B10448AFF345
:10011C0000800123237010BD641600200000000035
:10012C00BC3B000808B5034B1BB103490348AFF3B4
:10013C00008008BD0000000068160020BC3B0008D1
:10014C0012230B80004870472000002004230B80F2
:10015C00004870471C00002008B50A4620B9054924
:10016C00054800F023FE03E00249034800F01EFEA0
:10017C00004808BDDC180020E83B000810B5044C12
:10018C000A462146034800F011FE204610BD00BF70
:10019C00DC180020FC3B000808B50A4620B90549CC
:1001AC00054800F003FE03E00249034800F0FEFDA1
:1001BC00004808BDDC180020143C000808B50A46AD
:1001CC0020B90549054800F0F1FD03E00249034858
:1001DC0000F0ECFD004808BDDC180020243C0008B1
:1001EC0008B50A4620B90549054800F0DFFD03E0D3
:1001FC000249034800F0DAFD004808BDDC18002075
:10020C00303C000802680E4B9A4217D100B583B0FF
:10021C0003F5DA33DA6942F40002DA61DB6903F4DC
:10022C0000030193019B00220221142003F0D2F958
:10023C00142003F001FA03B05DF804FB704700BF13
:10024C00005C004008B500F57B71D0F81C0400F090
:10025C0007FE08BD08B500EB4113D3F81C22D0F8FB
:10026C001C0400F02BFE08BD08B500EB4113DA6B43
:10027C00D0F81C0400F056FE08BD00BF08B5D0F83D
:10028C001C0400F0D9FE08BD10B504460121D0F8BD
:10029C001C0400F0BDFED4F81C0400F099FE10BD47
:1002AC0010B50446D0F81C0400F0B6FEA36923B1C7
:1002BC00024A136943F00603136110BD00ED00E020
:1002CC0008B5D0F81C0400F0B1FE08BD10B504460A
:1002DC001D48C0F81C44C4F820021C4B03600823C2
:1002EC004360022383600023C3608361C3610362A4
:1002FC0002F0F4FB08B100F01BFA1823002211469F
:10030C00D4F8200202F0CEFB582300228021D4F82E
:10031C00200202F0C7FBC02300228121D4F8200266
:10032C0002F0C0FB4FF4887300220121D4F82002A4
:10033C0002F0B8FB4FF4807300228221D4F8200223
:10034C0002F0B0FB002010BDDC1A0020005C004065
:10035C0008B5D0F8200202F02FFC002008BD00BF29
:10036C0010B51C4613462246D0F8200202F050FC71
:10037C00002010BD08B5D0F8200202F073FC00205C
:10038C0008BD00BF08B5D0F8200202F0C9FF00205C
:10039C0008BD00BF08B5D0F8200202F0EFFF002026
:1003AC0008BD00BFD0F8202211F0800F06D001F05C
:1003BC007F0302EB431191F82A00704701F07F0193
:1003CC0002EB411191F80A02704700BF08B5D0F852
:1003DC00200202F009FC002008BD00BF08B5D0F8CF
:1003EC00200202F09BFC002008BD00BF08B5D0F82D
:1003FC00200202F05FFC002008BD00BF08B5D0F859
:10040C00200202F083FC08BD0048704780160020D3
:10041C0008B503F001FA08BD704700BF0020704713
:10042C000020704710B5064C0649204600F012FF1C
:10043C00204600F02DFF00F053F9002010BD00BF46
:10044C00FC1E00204808002010B5064C002206496E
:10045C00204600F0F7FE0549204600F0FBFE002088
:10046C0010BD00BFFC1E00204400002048080020E6
:10047C00094BD3F81832D3F8143253B910B50A46D5
:10048C000146054C204600F0DDFE204600F0E8FE5B
:10049C0010BD0120704700BFFC1E002010B5094C98
:1004AC0000220949204600F09FFC0849204600F034
:1004BC00B3FC0749204600F0BDFE204600F0B4FC1A
:1004CC0010BD00BFFC1E0020000000208C1000207E
:1004DC0034000020704700BFFEE700BFFEE700BFFE
:1004EC00FEE700BFFEE700BF704700BF704700BFCC
:1004FC00704700BF08B503F0FDF803F0D1F808BD54
:10050C0008B5024802F062FE08BD00BFDC1A0020EC
:10051C0008B5024801F0C2FC08BD00BF2021002034
:10052C0000B583B0204B9A6942F001029A619B6935
:10053C0003F001030193019B032003F039F800221F
:10054C0011466FF00B0003F045F8002211466FF0D6
:10055C000A0003F03FF8002211466FF0090003F087
:10056C0039F8002211466FF0040003F033F8002232
:10057C0011466FF0030003F02DF8002211466FF0C6
:10058C00010003F027F8002211464FF0FF3003F072
:10059C0021F8064A536823F0E06343F0007353607C
:1005AC0003B05DF804FB00BF0010024000000140E6
:1005BC000368B3F1804F17D100B583B003F5043352
:1005CC00DA6942F00102DA61DB6903F0010301939D
:1005DC00019B002201211C2002F0FCFF1C2003F0D7
:1005EC002BF803B05DF804FB704700BF10B588B062
:1005FC00174B9A6942F020029A619A6902F0200224
:10060C000192019A9A6942F010029A619A6902F079
:10061C0010020292029A9A6942F004029A619B6952
:10062C0003F004030393039B0A4C00224FF4046170
:10063C00204602F0B7FF4FF40463049301230593A3
:10064C000223079304A9204602F0C0FE08B010BD97
:10065C000010024000100140F0B4049F002405E09B
:10066C00E519E618865D4E550134A4B29442F7D1D3
:10067C00F0BC704708B5164B1B68012B15D1012235
:10068C004021144802F08EFF13480168134B1A687E
:10069C0002EB8202930003F57A73CB62C36001F024
:1006AC005DFB00220A4B1A6008BD7BB90022402179
:1006BC00084802F077FF0848026848F6A043D36266
:1006CC00C36001F04BFB0122014B1A6008BD00BF57
:1006DC00440800200010014020210020A018002018
:1006EC000F4B1B787B2B1AD10D4B1B797D2B16D105
:1006FC0010B582B00B4C0023E3700093012303224E
:10070C0021460748FFF7A8FF204603F05AF8064B8E
:10071C0018600D210548FFF7ABFE02B010BD704705
:10072C00480800205C210020A01800204400002074
:10073C00FEE700BF00B587B017484FF08043036059
:10074C002823436000238360B422C260036101F05C
:10075C0093FC08B1FFF7ECFF06A94FF4805341F866
:10076C00103D0D4801F008FB08B1FFF7E1FF08212F
:10077C00094801F09DFC08B1FFF7DAFF0023009354
:10078C0001936946044801F081FA08B1FFF7D0FFE4
:10079C0007B05DF804FB00BF2021002000B595B028
:1007AC0001230A934FF480330B9300220C92022204
:1007BC00119212934FF4E01313930AA801F03AFD2F
:1007CC0008B1FFF7B5FF0F23059302210691002313
:1007DC0007934FF480620892099305A802F06AF817
:1007EC0008B1FFF7A5FF102301930023049301A880
:1007FC0001F084FC08B1FFF79BFF02F04DF9094BA7
:10080C00A3FB0030800902F023FF042002F036FF26
:10081C00002211464FF0FF3002F0DCFE15B05DF8FF
:10082C0004FB00BFD34D621008B502F051FFFFF777
:10083C00B5FFFFF7DBFEFFF731FEFFF77BFF002272
:10084C004021034802F0AEFE024801F087FAFEE7B1
:10085C00001001402021002010B513460222C0F8E0
:10086C00F4218361C3610A460021FFF7B7FD002024
:10087C0010BD00BF08B513460A460021FFF7AEFDB8
:10088C00002008BD10B513460322C0F8F421C0F8AF
:10089C000831C0F80C310A460021FFF7A7FD0020F3
:1008AC0010BD00BF08B513460A460021FFF79EFD98
:1008BC00002008BD08B50423C0F8F43100231A4603
:1008CC001946FFF78BFD002008BD00BF08B50523B6
:1008DC00C0F8F43100231A461946FFF787FD0020B3
:1008EC0008BD00BF0346002002E00130C0B2013356
:1008FC001A78002AF9D170474B88012B0BD110B50F
:10090C000446C0F80432D0F814329B68984720464D
:10091C00FFF7D0FF10BD70470B7803704B78437016
:10092C008B78CA7803EB022343800B794A7903EB6B
:10093C00022383808B79CA7903EB0223C38070472F
:10094C0010B504468021FFF71DFD00212046FFF75E
:10095C0019FD10BD30B583B004460D464A88130A04
:10096C00013B062B79D8DFE803F0040C2078785C87
:10097C006900D0F810321B680DF10601007C984715
:10098C006FE0037C43B9D0F814329B6A0DF106007A
:10099C0098470223437064E0D0F81432DB6A0DF1FF
:1009AC0006009847022343705BE0D2B2052A34D884
:1009BC00DFE802F0030B131B232BD0F810325B681B
:1009CC000DF10601007C98474BE0D0F810329B6883
:1009DC000DF10601007C984743E0D0F81032DB683B
:1009EC000DF10601007C98473BE0D0F810321B69F2
:1009FC000DF10601007C984733E0D0F810325B69AA
:100A0C000DF10601007C98472BE0D0F810329B6961
:100A1C000DF10601007C984723E02946FFF790FF73
:100A2C002DE0037C33B9D0F814325B6B0DF106006A
:100A3C00984716E02946FFF783FF20E0037C43B973
:100A4C00D0F814321B6B0DF1060098470723437046
:100A5C0007E02946FFF774FF11E02946FFF770FF06
:100A6C000DE0BDF8063053B1EA8842B19A4228BF76
:100A7C001A46ADF8062001462046FFF7EDFE03B0FE
:100A8C0030BD00BF38B504468B88E3B9CB88D3B9E9
:100A9C008D7805F07F0590F8FC31032B02D1FFF720
:100AAC004FFF38BD80F8FE512946FFF78FFC2046DA
:100ABC00FFF700FF1DB1022384F8FC3138BD012380
:100ACC0084F8FC3138BD2046FFF73AFF38BD00BF33
:100ADC0038B504460D468978264B1970012903D97F
:100AEC002946FFF72DFF38BD90F8FC31022B02D0C0
:100AFC00032B15D039E081B14160032380F8FC3120
:100B0C0000F098F9022804D129462046FFF718FF77
:100B1C0038BD2046FFF7CEFE38BDFFF7CBFE38BD03
:100B2C0049B9022380F8FC31416000F091F920466C
:100B3C00FFF7C0FE38BD4368994213D0D9B200F01C
:100B4C0087F90C4B19786160204600F073F9022884
:100B5C0004D129462046FFF7F3FE38BD2046FFF7A7
:100B6C00A9FE38BDFFF7A6FE38BD2946FFF7E8FE03
:100B7C0038BD00BFA418002008B5CB88012B02D0CB
:100B8C00FFF7DEFE08BD90F8FC31022B02D0032BE0
:100B9C0008D00CE00146002341F8083F0122FFF782
:100BAC005BFE08BD0122011DFFF756FE08BDFFF7D5
:100BBC00C7FE08BD08B590F8FC31023B012B0CD8E0
:100BCC000123C360D0F804320BB10323C3600222AB
:100BDC0000F10C01FFF740FE08BDFFF7B1FE08BDA8
:100BEC0010B5044690F8FC31023B012B0DD84B8814
:100BFC00012B0CD10023C0F80432D0F814329B68BE
:100C0C0098472046FFF756FE10BDFFF799FE10BD22
:100C1C0008B54B78092B1BD8DFE803F011171A1411
:100C2C001A08051A0E0BFFF795FE13E0FFF72AFFC3
:100C3C0010E0FFF74DFF0DE0FFF79EFF0AE0FFF716
:100C4C00B9FF07E0FFF758FE04E0FFF7C9FF01E02A
:100C5C00FFF776FE002008BD38B504460D4690F827
:100C6C00FC31032B0FD10B79012B09D8D0F814329E
:100C7C009B689847EB8843B92046FFF71BFE04E0BE
:100C8C00FFF75EFE01E0FFF75BFE002038BD00BF02
:100C9C0038B505460C468A880B7803F06003202B88
:100CAC0004D1D0F814329B6898477DE0D1B26378B8
:100CBC00012B26D0002B48D0032B75D190F8FC319A
:100CCC00022B02D0032B07D017E000296CD080290F
:100CDC006AD0FFF757FB67E0638823B919B1802905
:100CEC0001D0FFF74FFBD5F814329B6821462846FC
:100CFC0098472846FFF7DEFD56E02146FFF720FE19
:100D0C0052E090F8FC31022B02D0032B07D018E0F4
:100D1C00002949D0802947D0FFF734FB44E0638891
:100D2C00002B41D111F07F0F07D0FFF733FBD5F823
:100D3C0014329B682146284698472846FFF7BAFD8F
:100D4C0032E02146FFF7FCFD2EE090F8FC31022B3F
:100D5C0002D0032B06D024E011F07F0F24D0FFF734
:100D6C0011FB21E012F0800F06D001F07F0401345A
:100D7C0000EB0414043405E001F07F04103400EBA4
:100D8C00041404342846FFF70DFB10B10123236033
:100D9C0001E000232360022221462846FFF75CFD78
:100DAC0002E02146FFF7CCFD002038BDD0B170B574
:100DBC000D4616460446FFF795FD0130400080B203
:100DCC003080287003236B70022307E05A1CD2B2C8
:100DDC000134E9540233DBB20021A95421780029F3
:100DEC00F4D170BD704700BF98B108B50346D0F878
:100DFC00140210B10020C3F8140209B1C3F8101288
:100E0C001846012380F8FC310270FFF75FFA0020CE
:100E1C0008BD0220704700BF19B1C0F814120020A1
:100E2C0070470220704700BF08B5FFF791FA002009
:100E3C0008BD00BF08B5D0F8143223B11B68984721
:100E4C0018B1022008BD022008BD002008BD00BF5B
:100E5C0008B5D0F814325B689847002008BD00BF75
:100E6C0038B5044600F502752846FFF755FD0123F9
:100E7C00C4F8F431B4F80E32C4F8F83194F808120E
:100E8C0001F01F03012B08D013B1022B0AD00EE086
:100E9C0029462046FFF7BCFE0EE029462046FFF708
:100EAC00DBFE09E029462046FFF7F2FE04E001F0E4
:100EBC0080012046FFF766FA002038BD10B50446C5
:100ECC0011BB1346D0F8F421032A28D1D0F80C1109
:100EDC00D0F8102191420AD9891AC0F80C118A4213
:100EEC0028BF0A4692B21946FFF7DCFC17E0D0F88F
:100EFC0014321B6923B190F8FC21032A00D19847C6
:100F0C002046FFF7D7FC0AE00A46D0F814329B695A
:100F1C002BB190F8FC11032901D111469847002000
:100F2C0010BD00BF10B50446002943D11346D0F8BC
:100F3C00F421022A36D1C169026A91420CD98A1A6B
:100F4C00C26192B21946FFF795FC00231A46194666
:100F5C002046FFF74BFA25E08169B1FBF2F302FB67
:100F6C00131393B98A4210D8D0F8F83199420CD2A5
:100F7C0000221146FFF77EFC0021C4F8F8110B4645
:100F8C000A462046FFF732FA0CE0D4F81432DB683C
:100F9C002BB194F8FC21032A01D120469847204616
:100FAC00FFF794FC94F80032012B0ED1002384F847
:100FBC0000320AE00A46D0F814325B692BB190F883
:100FCC00FC11032901D111469847002010BD00BF28
:100FDC0038B50446402300221146FFF7C1F94025DD
:100FEC00C4F810512B46002280212046FFF7B8F997
:100FFC002562012384F8FC31D4F818322BB1D4F8D3
:10100C0014325B68217920469847002038BD00BF18
:10101C0001740020704700BF90F8FC3180F8FD315E
:10102C00042380F8FC310020704700BF90F8FD319C
:10103C0080F8FC310020704708B590F8FC31032B88
:10104C0004D1D0F81432DB6903B19847002008BDF5
:10105C00D0F818321BB10020C3F8140270470220DC
:10106C00704700BF10B5D0F81842D0F81C325BB1F5
:10107C0094F80002FF2807D09B6894F801222146BF
:10108C009847FF2384F80032002010BD43230380CF
:10109C0000487047481000204323038000487047E5
:1010AC00141100204323038000487047D010002007
:1010BC000A23038000487047C410002038B504464A
:1010CC00D0F81852FFF79AF9C5F80C02D4F8183278
:1010DC004BB1D4F81C32DB6805F50371D5F804026A
:1010EC009847002038BD022038BD00BF70B50546BA
:1010FC000C46D0F818620B7813F0600224D0202A2A
:10110C0029D1CA88CAB113F0800F0BD0D0F81C3289
:10111C009B68314660789847E28831462846FFF74D
:10112C009BFB18E04B7886F80032CB8886F80132AE
:10113C00CA883146FFF7A6FB0DE0D0F81C329B683D
:10114C0000224878984706E04B780A2B03D10122FD
:10115C000249FFF781FB002070BD00BFA5180020DD
:10116C0010B504468121FFF705F901212046FFF750
:10117C0001F982212046FFF7FDF8D4F8183253B15B
:10118C00D4F81C325B689847D4F81802FFF740F982
:10119C000023C4F81832002010BD00BF38B5044637
:1011AC00037C6BB94FF4007302228121FFF7D8F84E
:1011BC004FF40073022201212046FFF7D1F80AE018
:1011CC00402302228121FFF7CBF840230222012188
:1011DC002046FFF7C5F80823032282212046FFF79B
:1011EC00BFF84FF40770FFF70FF90546C4F8180263
:1011FC00E8B1D4F81C321B6898470023C5F81432A8
:10120C00C5F81832237C4BB94FF40073D5F804227F
:10121C0001212046FFF7EAF8002038BD4023D5F81D
:10122C00042201212046FFF7E1F8002038BD0120FF
:10123C0038BD00BF19B1C0F81C1200207047022045
:10124C00704700BFD0F81832C3F80812C3F8102248
:10125C0000207047D0F81832C3F8041200207047F1
:10126C00D0F818227AB108B5D2F814326BB9012330
:10127C00C2F81432B2F81032D2F808228121FFF7EA
:10128C00ADF8002008BD02207047012008BD00BF4A
:10129C00D0F818229AB108B5037C43B94FF4007307
:1012AC00D2F804220121FFF7A1F8002008BD402349
:1012BC00D2F804220121FFF799F8002008BD022082
:1012CC00704700BF84B001A880E80E00002004B075
:1012DC00704700BFB0F840309BB243F43D43A0F8D8
:1012EC0040300020704700BFB0F8403023F47453F6
:1012FC005B045B0CA0F84030002070470020704766
:10130C0084B010B402AC84E80E000123A0F8403085
:10131C000023A0F84030A0F84430A0F85030184614
:10132C0010BC04B0704700BF10B4CB78032B35D879
:10133C00DFE803F002280F1B0A7830F822309BB24A
:10134C0023F4EC4323F0700343F4007320F82230B1
:10135C0024E00A7830F822309BB223F4EC4323F0DB
:10136C0070039BB220F8223018E00A7830F8223053
:10137C009BB223F4EC4323F0700343F4C06320F8D6
:10138C0022300BE00A7830F822309BB223F4EC4385
:10139C0023F0700343F4806320F822300A7830F88D
:1013AC00223023F0F0031B051B0D134343F40043C1
:1013BC0043F0800320F822308B7A002B40F08B8096
:1013CC004B7883B3B0F850309BB20A7803EBC2036E
:1013DC0000EB43038A8852085200C3F800240A78B1
:1013EC0030F8223003F040039BB25BB130F822306E
:1013FC0023F0F0031B051B0D43F4004343F0C00323
:10140C0020F822300A7830F822309BB223F4E043E3
:10141C0023F0400383F0200343F4004343F08003A4
:10142C0020F822301BE1B0F850309BB20A7803EB65
:10143C00C203043300EB43038A8852085200C3F8FA
:10144C000024B0F850309BB20A7803EBC203063389
:10145C0000EB43030C693E2C0ED9C4F34F1214F06D
:10146C001F0F01D1013A92B26FEAC2626FEA524287
:10147C0092B2C3F800240AE0C4F34F0214F0010F37
:10148C0001D0013292B2920292B2C3F800240A78CF
:10149C0030F8223003F480439BB25BB130F8223039
:1014AC0023F0F0031B051B0D43F4404343F0800372
:1014BC0020F822300A7830F822309BB223F4804393
:1014CC0023F0700383F4405343F4004343F0800350
:1014DC0020F82230C3E00A7830F8223023F4F87375
:1014EC001B051B0D43F4014343F0800320F822300D
:1014FC00B0F850309BB20A7803EBC20300EB430305
:10150C00CA8852085200C3F80024B0F850309BB27D
:10151C000A7803EBC203043300EB43030A89520835
:10152C005200C3F800244B78002B4DD10A7830F8C8
:10153C00223003F480439BB25BB130F8223023F0AD
:10154C00F0031B051B0D43F4404343F0800320F8CC
:10155C0022300A7830F8223003F040039BB25BB1A2
:10156C0030F8223023F0F0031B051B0D43F400432D
:10157C0043F0C00320F822300A7830F8223023F0F0
:10158C00F0031B051B0D43F4004343F0C00320F88C
:10159C0022300C7830F824309BB223F4804323F0B3
:1015AC00700383F4405348F28002134320F8243034
:1015BC00097830F821309BB223F4E04323F0400348
:1015CC00134320F821304AE00A7830F8223003F433
:1015DC0080439BB25BB130F8223023F0F0031B0543
:1015EC001B0D43F4404343F0800320F822300A786B
:1015FC0030F8223003F040039BB25BB130F822305C
:10160C0023F0F0031B051B0D43F4004343F0C00310
:10161C0020F822300A7830F8223023F0F0031B0532
:10162C001B0D43F4404343F0800320F822300C7828
:10163C0030F824309BB223F4E04323F0400348F20B
:10164C008002134320F82430097830F821309BB203
:10165C0023F4804323F07003134320F8213000203F
:10166C0010BC70478B7A002B46D14B7813B30A7899
:10167C0030F8223003F040039BB25BB130F82230DB
:10168C0023F0F0031B051B0D43F4004343F0C00390
:10169C0020F822300A7830F822309BB223F4E04351
:1016AC0023F0400343F4004343F0800320F822303E
:1016BC00002070470A7830F8223003F480439BB244
:1016CC005BB130F8223023F0F0031B051B0D43F403
:1016DC00404343F0800320F822300A7830F822305F
:1016EC009BB223F4804323F0700343F4004343F094
:1016FC00800320F82230DBE710B44B78002B4BD161
:10170C000A7830F8223003F480439BB25BB130F896
:10171C00223023F0F0031B051B0D43F4404343F030
:10172C00800320F822300A7830F8223003F040038E
:10173C009BB25BB130F8223023F0F0031B051B0D7C
:10174C0043F4004343F0C00320F822300A7830F809
:10175C00223023F0F0031B051B0D43F4004343F030
:10176C00C00320F822300C7830F824309BB223F4DC
:10177C00804323F0700348F28002134320F8243096
:10178C00097830F821309BB223F4E04323F0400376
:10179C00134320F821304AE00A7830F8223003F461
:1017AC0080439BB25BB130F8223023F0F0031B0571
:1017BC001B0D43F4404343F0800320F822300A7899
:1017CC0030F8223003F040039BB25BB130F822308A
:1017DC0023F0F0031B051B0D43F4004343F0C0033F
:1017EC0020F822300A7830F8223023F0F0031B0561
:1017FC001B0D43F4404343F0800320F822300C7857
:10180C0030F824309BB223F4E04323F0400348F239
:10181C008002134320F82430097830F821309BB231
:10182C0023F4804323F07003134320F8213000206D
:10183C0010BC70470A788AB930F822309BB223F476
:10184C00804323F0400383F4805383F0100343F46C
:10185C00004343F0800320F8223020E04B787BB12A
:10186C0030F822309BB223F4E04323F0400383F0A2
:10187C00100343F4004343F0800320F822300EE0C1
:10188C0030F822309BB223F4804323F0700383F4AE
:10189C00805343F4004343F0800320F822300020AF
:1018AC00704700BF4B781BB30A7830F8223003F036
:1018BC0040039BB25BB130F8223023F0F0031B05E0
:1018CC001B0D43F4004343F0C00320F822300A7888
:1018DC0030F822309BB223F4E04323F0400383F032
:1018EC00300343F4004343F0800320F8223022E01D
:1018FC000A7830F8223003F480439BB25BB130F8A5
:10190C00223023F0F0031B051B0D43F4404343F03E
:10191C00800320F822300A7830F822309BB223F46E
:10192C00804323F0700383F4405343F4004343F0AB
:10193C00800320F822300020704700BF11B98023AB
:10194C00A0F84C30002070470020704700207047F2
:10195C00B0F8440080B270470020704710B40133D7
:10196C005B1000EB420202F5806207E00C784878CD
:10197C0044EA002422F8044B0231013B002BF5D140
:10198C0010BC704770B54A78012A40F0C2808E694D
:10199C000B699E4203D9F61A8E611E4601E00023A4
:1019AC008B610D4604468B7A83B9B3B28A88496938
:1019BC00FFF7D4FFB4F850309BB22A7803EBC20384
:1019CC00023304EB4303C3F8006491E0097830F868
:1019DC00213003F040039BB29BB322BBB0F85030D4
:1019EC009BB203EBC101063100EB41013E2E0ED937
:1019FC00C6F34F1316F01F0F01D1013B9BB26FEAD8
:101A0C00C3636FEA53439BB2C1F8003417E0C6F3CB
:101A1C004F0316F0010F01D001339BB29B029BB216
:101A2C00C1F800340BE0012A09D1B0F850309BB258
:101A3C0003EBC103023300EB4303C3F800642A89B0
:101A4C0032E022BBB0F850309BB203EBC101023143
:101A5C0000EB41013E2E0ED9C6F34F1316F01F0FAB
:101A6C0001D1013B9BB26FEAC3636FEA53439BB254
:101A7C00C1F8003417E0C6F34F0316F0010F01D084
:101A8C0001339BB29B029BB2C1F800340BE0012ADC
:101A9C0009D1B0F850309BB203EBC103023300EB19
:101AAC004303C3F80064EA88B3B269692046FFF7C0
:101ABC0055FF6B786BB92A7834F8223023F0F00399
:101ACC001B051B0D43F4004343F0C00324F82230E4
:101ADC000EE0012B0CD12A7834F8223023F0F003DD
:101AEC001B051B0D43F4404343F0800324F82230C4
:101AFC002A7834F822309BB223F4E04323F04003DD
:101B0C0083F0300343F4004343F0800324F8223085
:101B1C00AAE08B690C69A34203D91B1B8B6123467A
:101B2C0001E000248C618C7A2CBBB0F8502092B26E
:101B3C000C7802EBC402063200EB42023E2B0ED9AB
:101B4C00C3F34F1413F01F0F01D1013CA4B26FEA81
:101B5C00C4646FEA5444A4B2C2F8004474E0C3F302
:101B6C004F0413F0010F01D00134A4B2A402A4B2AB
:101B7C00C2F8004468E02ABBB0F8502092B20C784E
:101B8C0002EBC402023200EB42023E2B0ED9C3F32D
:101B9C004F1413F01F0F01D1013CA4B26FEAC464BF
:101BAC006FEA5444A4B2C2F8004418E0C3F34F04E3
:101BBC0013F0010F01D00134A4B2A402A4B2C2F8F4
:101BCC0000440CE0012A0AD1B0F8502092B20C78F3
:101BDC0002EBC402023200EB4202C2F800344A7833
:101BEC002ABBB0F8502092B20C7802EBC402063239
:101BFC0000EB42023E2B0ED9C3F34F1413F01F0F10
:101C0C0001D1013CA4B26FEAC4646FEA5444A4B29B
:101C1C00C2F8004418E0C3F34F0413F0010F01D0D5
:101C2C000134A4B2A402A4B2C2F800440CE0012A0C
:101C3C000AD1B0F8502092B20C7802EBC4020232F6
:101C4C0000EB4202C2F800340A7830F822309BB222
:101C5C0023F4804323F0700383F4405343F4004394
:101C6C0043F0800320F82230002070BD01335B105C
:101C7C0000EB420202F5806204E0106821F8020BCE
:101C8C00013B0432002BF8D1704700BF90F838307C
:101C9C00012B21D030B4012280F83820022380F8A7
:101CAC0039300468636823F0700363600468656806
:101CBC000B682B4363600468A36823F08003A36064
:101CCC000468A5684B682B43A36080F83920002377
:101CDC0080F83830184601E00220704730BC70475D
:101CEC00704700BF704700BF10B4036A046A24F049
:101CFC0001040462846924F0F00444EA021223F023
:101D0C000A0319438261016210BC704710B4036A64
:101D1C0023F0100303628469036A24F4704444EAD8
:101D2C00023223F0A00343EA01118261016210BC6C
:101D3C00704700BF836823F0700341F0070119431B
:101D4C008160704710B4846824F47F4442EA032312
:101D5C00194344EA0103836010BC70470268D368DE
:101D6C0043F00103D3600268136843F0010313606E
:101D7C0000207047704700BF90F83830012B00F0FE
:101D8C00838010B50446012380F83830022380F894
:101D9C0039300268936823F47F4323F07703936010
:101DAC000B68402B4CD00AD8102B58D002D8002BE3
:101DBC0050D062E0202B57D0302B5AD05DE0702BE6
:101DCC0012D004D8502B27D0602B2FD055E0B3F570
:101DDC00805F03D0B3F5005F12D04EE002689368C9
:101DEC0023F00703936048E0CB684A688968006871
:101DFC00FFF7A8FF2268936843F0770393603CE0F9
:101E0C00CB684A6889680068FFF79CFF2268936872
:101E1C0043F48043936030E0CA6849680068FFF778
:101E2C0063FF50212068FFF785FF26E0CA684968E8
:101E3C000068FFF76BFF60212068FFF77BFF1CE059
:101E4C00CA6849680068FFF74FFF40212068FFF718
:101E5C0071FF12E000210068FFF76CFF0DE010210C
:101E6C000068FFF767FF08E020210068FFF762FFBA
:101E7C0003E030210068FFF75DFF012384F839305F
:101E8C00002084F8380010BD02207047704700BF56
:101E9C00704700BF704700BF704700BF10B50446C5
:101EAC0003681A6912F0020F17D0DA6812F0020FE9
:101EBC0013D06FF002021A610123037603689B6949
:101ECC0013F0030F02D0FFF7E3FF04E0FFF7DEFF90
:101EDC002046FFF7DFFF0023237623681A6912F0F0
:101EEC00040F19D0DA6812F0040F15D06FF0040249
:101EFC001A610223237623689B6913F4407F03D075
:101F0C002046FFF7C5FF05E02046FFF7BFFF204640
:101F1C00FFF7C0FF0023237623681A6912F0080F1D
:101F2C0019D0DA6812F0080F15D06FF008021A6198
:101F3C00042323762368DB6913F0030F03D02046B8
:101F4C00FFF7A6FF05E02046FFF7A0FF2046FFF7AE
:101F5C00A1FF0023237623681A6912F0100F19D001
:101F6C00DA6812F0100F15D06FF010021A61082306
:101F7C0023762368DB6913F4407F03D02046FFF7F8
:101F8C0087FF05E02046FFF781FF2046FFF782FF21
:101F9C000023237623681A6912F0010F09D0DA683E
:101FAC0012F0010F05D06FF001021A612046FEF706
:101FBC0061FB23681A6912F0800F09D0DA6812F0FD
:101FCC00800F05D06FF080021A612046FFF78AFE61
:101FDC0023681A6912F0400F09D0DA6812F0400F2A
:101FEC0005D06FF040021A612046FFF755FF2368B9
:101FFC001A6912F0200F09D0DA6812F0200F05D000
:10200C006FF020021A612046FFF76AFE10BD00BF78
:10201C000368184A90420AD0B0F1804F07D0A2F55D
:10202C009432904203D002F58062904203D123F0A7
:10203C0070034A6813430F4A90420AD0B0F1804FA4
:10204C0007D0A2F59432904203D002F58062904200
:10205C0003D123F44073CA68134303608B68C362D3
:10206C000B688362034B984201D10B690363012314
:10207C0043617047002C0140B8B110B5044690F88C
:10208C00393013F0FF0F04D1002380F83830FEF7FD
:10209C008FFA022384F83930211D2068FFF7B8FF2E
:1020AC00012384F83930002010BD0120704700BF97
:1020BC0008B338B504460D4690F8393013F0FF0FCD
:1020CC0004D1002380F83830FFF754FE022384F843
:1020DC003930211D2068FFF79BFF2268136823F01D
:1020EC00080313602368196829431960012384F8D5
:1020FC003930002038BD0120704700BFF0B583B0E7
:10210C000446036813F0010F6FD0474BDA6942F0B5
:10211C008052DA61DB6903F080530193019B434ADF
:10212C00136843F48073136001F0ECFA054604E085
:10213C0001F0E8FA401B64286FD83C4B1B6813F481
:10214C00807FF5D0384B1B6A13F4407346D062681D
:10215C0002F44072934241D03348016A21F4407634
:10216C004FF4803393FAA3F2B2FA82F2304D012786
:10217C0045F8227093FAA3F3B3FA83F3002245F8DF
:10218C002320066211F0010F28D001F0BBFA05469E
:10219C0006E001F0B7FA401B41F2883398423ED872
:1021AC00022393FAA3F293FAA3F3B3FA83F35B0932
:1021BC0043F00203DBB2022B02D11B4B1A6A01E083
:1021CC00194B5A6A022393FAA3F3B3FA83F303F07D
:1021DC001F0322FA03F313F0010FDAD012490B6A32
:1021EC0023F44072636813430B62236813F0020FED
:1021FC0006D00D494B6823F44042A36813434B604F
:10220C00236813F0100F0CD007494B6823F480029D
:10221C00E36813434B60002004E0032002E003203A
:10222C0000E0002003B0F0BD001002400070004040
:10223C000004424230B583B00446036813F0010F2A
:10224C0000F09680B24B5B6803F00C03042B0AD0B1
:10225C00AF4B5B6803F00C03082B1BD1AC4B5B68DA
:10226C0013F4803F16D04FF4003393FAA3F3A84B2A
:10227C001A684FF4003393FAA3F3B3FA83F303F021
:10228C001F0322FA03F313F0010F71D06368002BC4
:10229C006ED1A0E26368B3F5803F05D19C4A136808
:1022AC0043F48033136026E063B903F1804303F5F4
:1022BC0004331A6822F480321A601A6822F48022DD
:1022CC001A6018E0B3F5A02F0CD103F18043A3F5ED
:1022DC003C331A6842F480221A601A6842F4803245
:1022EC001A6008E08A4B1A6822F480321A601A6865
:1022FC0022F480221A606368EBB101F003FA054600
:10230C0005E001F0FFF9401B642800F266824FF4EF
:10231C00003393FAA3F37E4B1A684FF4003393FA0D
:10232C00A3F3B3FA83F303F01F0322FA03F313F0BE
:10233C00010FE6D01CE001F0E5F9054605E001F0DF
:10234C00E1F9401B642800F24A824FF4003393FAFF
:10235C00A3F36F4B1A684FF4003393FAA3F3B3FA59
:10236C0083F303F01F0322FA03F313F0010FE6D1FA
:10237C00236813F0020F00F09080654B5B6813F03C
:10238C000C0F0AD0624B5B6803F00C03082B27D1AF
:10239C005F4B5B6813F4803F22D1022393FAA3F3C3
:1023AC005B4B1A68022393FAA3F3B3FA83F303F09B
:1023BC001F0322FA03F313F0010F03D02369012B3F
:1023CC0040F00F825248036823F0F8016369F82249
:1023DC0092FAA2F2B2FA82F293400B4303605CE0F1
:1023EC0023699BB3012292FAA2F3B3FA83F39B0005
:1023FC0003F1844303F584031A6001F083F9054665
:10240C0005E001F07FF9401B022800F2EC81022369
:10241C0093FAA3F33E4B1A68022393FAA3F3B3FA8D
:10242C0083F303F01F0322FA03F313F0010FE8D038
:10243C003748036823F0F8016369F82292FAA2F294
:10244C00B2FA82F293400B43036026E0012393FA25
:10245C00A3F3B3FA83F39B0003F1844303F58403E2
:10246C0000221A6001F04EF9054605E001F04AF928
:10247C00401B022800F2B981022393FAA3F3244BE8
:10248C001A68022393FAA3F3B3FA83F303F01F033E
:10249C0022FA03F313F0010FE8D1236813F0080FAD
:1024AC0052D0A3693BB3012292FAA2F3B3FA83F39D
:1024BC00184941F8232001F025F9054605E001F003
:1024CC0021F9401B022800F29281022393FAA3F215
:1024DC0093FAA3F20E4A526A93FAA3F3B3FA83F374
:1024EC0003F01F0322FA03F313F0010FE7D00120CE
:1024FC0001F00EF928E0012393FAA3F3B3FA83F366
:10250C000021044A42F8231001F0FCF8054609E0CA
:10251C00001002408004424201F0F4F8401B0228F3
:10252C0000F26781022393FAA3F293FAA3F2BA4A58
:10253C00526A93FAA3F3B3FA83F303F01F0322FA5C
:10254C0003F313F0010FE7D1236813F0040F00F02D
:10255C00A180B14BDA6942F08052DA61DB6903F099
:10256C0080530193019BAD4A136843F4807313604D
:10257C0001F0C8F8054605E001F0C4F8401B6428DA
:10258C0000F23981A54B1B6813F4807FF4D0E3680B
:10259C00012B05D1A04A136A43F00103136222E018
:1025AC0063B903F1804303F504331A6A22F0010284
:1025BC001A621A6A22F004021A6214E0052B09D17D
:1025CC00954B1A6A42F004021A621A6A42F001022E
:1025DC001A6208E0904B1A6A22F001021A621A6A17
:1025EC0022F004021A62E36853B301F08BF805463B
:1025FC0007E001F087F8401B41F28833984200F263
:10260C00FC80022393FAA3F293FAA3F3B3FA83F3B5
:10261C005B0943F00203DBB2022B02D17E4B1A6A38
:10262C0001E07D4B5A6A022393FAA3F3B3FA83F3C6
:10263C0003F01F0322FA03F313F0010FD9D029E0A2
:10264C0001F060F8054607E001F05CF8401B41F230
:10265C008833984200F2D380022393FAA3F293FAC0
:10266C00A3F3B3FA83F35B0943F00203DBB2022B4F
:10267C0002D1694B1A6A01E0674B5A6A022393FA3A
:10268C00A3F3B3FA83F303F01F0322FA03F313F05B
:10269C00010FD9D1E369002B00F0B3805E4A526878
:1026AC0002F00C02082A00F0AE80022B68D14FF029
:1026BC00807393FAA3F3B3FA83F39B0003F184437F
:1026CC0003F5840300221A6001F01CF8054605E0AE
:1026DC0001F018F8401B022800F297804FF00073AD
:1026EC0093FAA3F34C4B1A684FF0007393FAA3F3CD
:1026FC00B3FA83F303F01F0322FA03F313F0010F71
:10270C00E6D1236AB3F5803F06D143494B6823F4E5
:10271C000032A36813434B603F48436823F47411A1
:10272C00236A626A13430B4343604FF0807393FA3E
:10273C00A3F3B3FA83F39B0003F1844303F58403FF
:10274C0001221A6000F0DEFF044604E000F0DAFF1C
:10275C00001B02285BD84FF0007393FAA3F32E4BA7
:10276C001A684FF0007393FAA3F3B3FA83F303F0F0
:10277C001F0322FA03F313F0010FE7D0002049E006
:10278C004FF0807393FAA3F3B3FA83F39B0003F136
:10279C00844303F5840300221A6000F0B3FF04465F
:1027AC0004E000F0AFFF001B022832D84FF000739A
:1027BC0093FAA3F3184B1A684FF0007393FAA3F330
:1027CC00B3FA83F303F01F0322FA03F313F0010FA0
:1027DC00E7D100201EE001201CE003201AE00320BA
:1027EC0018E0012016E0032014E0032012E003207F
:1027FC0010E003200EE003200CE003200AE003208D
:10280C0008E0002006E0012004E0032002E00320A1
:10281C0000E0032003B030BD001002400070004007
:10282C0030B486B01F4D02AC28686968AA68EB68A2
:10283C000FC42B8AADF804301B4B5B6803F00C0201
:10284C00082A2AD103F470114FF4701292FAA2F2F2
:10285C00B2FA82F221FA02F206A90A4412F8102CFA
:10286C0013F4803F15D0104B5B6803F400314FF428
:10287C00003393FAA3F3B3FA83F321FA03F306A913
:10288C000B4413F8140C094BB3FBF0F000FB02F0F3
:10289C0004E0074800FB02F000E0044806B030BC3E
:1028AC00704700BFD43B00080010024000127A00B1
:1028BC0000093D0070B5744B1B6803F007038B4295
:1028CC000BD2714A136823F007030B431360136890
:1028DC0003F00703994240F0C680036813F0020F1F
:1028EC0006D06A4C636823F0F0028368134363607C
:1028FC000D460446036813F0010F75D04268012A97
:10290C0013D14FF4003393FAA3F3604B19684FF4CF
:10291C00003393FAA3F3B3FA83F303F01F0321FA02
:10292C0003F313F0010F27D19FE0022A13D14FF0CC
:10293C00007393FAA3F3554B19684FF0007393FA95
:10294C00A3F3B3FA83F303F01F0321FA03F313F099
:10295C00010F11D18BE0022393FAA3F34B4B1968AF
:10296C00022393FAA3F3B3FA83F303F01F0321FAC0
:10297C0003F313F0010F7CD044494B6823F003039D
:10298C0013434B6000F0BEFE06466368012B0ED16C
:10299C0006E000F0B7FE801B41F2883398426AD8FB
:1029AC003A4B5B6803F00C03042BF2D11CE0022BB6
:1029BC0015D106E000F0A6FE801B41F28833984248
:1029CC005BD8324B5B6803F00C03082BF2D10BE0A5
:1029DC0000F098FE801B41F2883398424FD82B4B65
:1029EC005B6813F00C0FF3D1274B1B6803F0070344
:1029FC009D420AD2244A136823F007032B43136029
:102A0C00136803F007039D423BD1236813F0040FB6
:102A1C0006D01E494B6823F4E062E36813434B6015
:102A2C00236813F0080F07D0184A536823F4605337
:102A3C00216943EAC1035360FFF7F2FE134B5B6855
:102A4C0003F0F002F02393FAA3F3B3FA83F322FA20
:102A5C0003F30F4AD35CD8400E4B1860002000F0F3
:102A6C0023FE002070BD012070BD012070BD01202F
:102A7C0070BD012070BD032070BD032070BD03200C
:102A8C0070BD012070BD00BF00200240001002404C
:102A9C00403C000858110020014B1868704700BFDB
:102AAC005811002010B401F08004A4B22CB101F034
:102ABC007F0149012831014403E0490101F502710C
:102ACC00014412B98A728B8004E001228A72CB8095
:102ADC001B0C0B81002010BC704700BF002867D076
:102AEC00F0B587B0044690F8E93313F0FF0F04D12A
:102AFC00002380F8E833FDF785FB032384F8E933E2
:102B0C002068FEF7F1FB254655F8107B6E460FCD7D
:102B1C000FC62B683360231D0ECB3846FEF7D2FB55
:102B2C0000212068FEF7EAFB002310E004EB4312BF
:102B3C00012182F8291082F828309386002182F82E
:102B4C002B109163D1639A1C5201A15001330E2BAF
:102B5C00ECD9002312E004EB4312002182F8091295
:102B6C0082F80832938682F80B12C2F81812C2F857
:102B7C001C1203F111025201A15001330E2BEAD9A0
:102B8C00254655F8107B6E460FCD0FC62B6833606B
:102B9C00231D0ECB3846FEF7B3FB002584F82450DA
:102BAC00012384F8E9332068FEF7D0FE284601E0C3
:102BBC000120704707B0F0BD90F8E833012B10D01E
:102BCC0010B50446012180F8E813FDF725FC2068B8
:102BDC00FEF7BAFE2068FEF77DFB002084F8E803C0
:102BEC0010BD0220704700BF90F8E833012B0DD0C8
:102BFC0010B50446012380F8E83380F824100068EF
:102C0C00FEF79CFE002084F8E80310BD02207047FC
:102C1C0038B54DB2002D05DA01F07F04640128347B
:102C2C00044405E001F07F04640104F502740444DB
:102C3C0001F07F012170ED0F65702261E37090F857
:102C4C00E833012B0BD00546012380F8E8332146ED
:102C5C000068FEF769FB002085F8E80338BD022008
:102C6C0038BD00BF4AB2002A05DA01F07F035B01D0
:102C7C002833034405E001F07F035B0103F5027385
:102C8C00034401F07F011970D20F5A7090F8E823B9
:102C9C00012A0CD010B50446012280F8E82319460D
:102CAC000068FEF7DFFC002084F8E80310BD02206A
:102CBC00704700BF70B501F07F056C0104F502711F
:102CCC0001440444C4F81C2205F111025201861877
:102CDC0083500023736084F8093284F8085290F80A
:102CEC00E833012B0FD00446012380F8E8331DB9DB
:102CFC000068FEF747FE02E00068FEF743FE002086
:102D0C0084F8E80370BD022070BD00BF01F07F01A4
:102D1C00113100EB41108088704700BF70B501F095
:102D2C007F056C0104F1280101440444E263AA1CF0
:102D3C0052018618835000237360012384F82930D4
:102D4C0084F8285090F8E833012B0FD00446012367
:102D5C0080F8E8331DB90068FEF714FE02E0006845
:102D6C00FEF710FE002084F8E80370BD022070BD51
:102D7C0070B582B005460023ADF80630ADF80430CE
:102D8C0016E2BDF8064014F00F0440F0C880BDF800
:102D9C00063003F010039BB29BBB03889BB223F459
:102DAC00E14323F070039BB203802968B1F85030E3
:102DBC009AB295F8283002EBC303023301EB4303BC
:102DCC00D3F80034C3F309036B64EA6B1344EB636D
:102DDC0000212846FDF748FA95F8243013F0FF0F30
:102DEC0000F0E6812B6C002B40F0E2812A6895F80C
:102DFC00243043F08003A2F84C30002385F82430B3
:102E0C00D6E103889BB2ADF80430BDF8043003F46E
:102E1C0000639BB203B3B0F850309BB295F8082214
:102E2C0003EBC203063300EB4303D3F80034C3F3C4
:102E3C000903C5F82432B5F80C2205F57B71FEF7B1
:102E4C0015FF2A68138823F070031B051B0D1380D4
:102E5C002846FDF7F7F9ABE1BDF8043013F4004F49
:102E6C0000F0A681038823F070031B051B0D038063
:102E7C002868B0F850309BB295F8082203EBC203D7
:102E8C00063300EB4303D3F80034C3F30903C5F84E
:102E9C00243263B1B5F80C22D5F81C12FEF7E6FE0D
:102EAC00D5F81C22D5F824321344C5F81C32002165
:102EBC002846FDF7CFF92A68B2F850309BB206339A
:102ECC0002EB4303D5F818123E290ED9C1F34F1269
:102EDC0011F01F0F01D1013A92B26FEAC2626FEA90
:102EEC00524292B2C3F800240AE0C1F34F0211F02F
:102EFC00010F01D0013292B2920292B2C3F80024B7
:102F0C002A6813889BB223F4804323F0700383F464
:102F1C00405343F4004343F08003138048E130F8FE
:102F2C0024309BB2ADF80430BDF8043013F4004FDC
:102F3C0000F0968030F8243023F070031B051B0D35
:102F4C0020F8243005EB441393F81232E3B92868C7
:102F5C00B0F850309BB205EB441292F8082203EB08
:102F6C00C203063300EB4303D3F80064C6F309062F
:102F7C00002E52D005EB44113346B1F80C22D1F897
:102F8C001C12FEF773FE48E0286805EB441393F817
:102F9C00081230F8213003F480439BB2B3B1B0F87F
:102FAC00502092B202EBC103023300EB4303D3F87F
:102FBC000064C6F30906FEB105EB44113346B1F8C3
:102FCC000E22D1F81C12FEF751FE15E0B0F850306D
:102FDC009BB203EBC103063300EB4303D3F800644D
:102FEC00C6F3090646B105EB44113346B1F810227D
:102FFC00D1F81C12FEF73AFE2A6805EB441393F83D
:10300C00081232F8213023F0F0031B051B0D43F49A
:10301C00004343F0C00322F8213004F111035B019B
:10302C00E9184A6832444A6005EB4411D1F81C2275
:10303C003244C1F81C22EB581BB1D1F818128E4245
:10304C0007D205EB441393F808122846FDF702F952
:10305C0006E005EB441191F808122846FFF72AFE0A
:10306C00BDF8043003F080039BB2002B00F0A0806D
:10307C002A6832F824309BB223F4E14323F0700326
:10308C009BB222F8243005EB441393F83230EBB9A1
:10309C002868B0F850309BB205EB441292F8282007
:1030AC0003EBC203023300EB4303D3F80034C3F346
:1030BC000903A21C05EB42125360002B51D005EB07
:1030CC0044118A8DC96BFEF749FC4AE0286805EB70
:1030DC00441393F8281030F8213003F040039BB2CE
:1030EC00BBB1B0F8502092B202EBC103023300EB3B
:1030FC004303D3F80034C3F30903A21C05EB4212BB
:10310C005360EBB105EB4411CA8DC96BFEF726FC7D
:10311C0016E0B0F850309BB203EBC103063300EB62
:10312C004303D3F80034C3F30903A21C05EB42128A
:10313C0053602BB105EB44110A8EC96BFEF70EFCE4
:10314C002A6805EB441393F8281032F8213023F049
:10315C00F0031B051B0D43F4404343F0800322F89E
:10316C0021302968B1F850309AB205EB441090F830
:10317C00283002EBC303023301EB4303D3F80034D2
:10318C00C3F30903A11C49016A185360C26B1A44AA
:10319C00C2636B582BB990F828102846FDF764F8D9
:1031AC0006E005EB441494F828102846FFF7B6FD0A
:1031BC002868B0F844309BB2ADF8063013F4004FD9
:1031CC007FF4DFAD002002B070BD00BF10B5044627
:1031DC000068FEF7BDFB10F4004F02D02046FFF74D
:1031EC00C7FD2068FEF7B4FB10F4806F0FD0226887
:1031FC00B2F844309BB223F480639BB2A2F8443003
:10320C002046FDF741F800212046FFF7EDFC206831
:10321C00FEF79EFB10F4804F08D02268B2F84430C1
:10322C009BB223F480439BB2A2F844302068FEF793
:10323C008FFB10F4005F08D02268B2F844309BB2C8
:10324C0023F400539BB2A2F844302068FEF780FBB5
:10325C0010F4805F19D02268B2F840309BB223F092
:10326C0004039BB2A2F8403023684FF43D42A3F80C
:10327C0040202046FDF724F82268B2F844309BB277
:10328C0023F480539BB2A2F844302068FEF760FB15
:10329C0010F4006F21D02268B2F844309BB223F4B2
:1032AC0000639BB2A2F844302268B2F840309BB263
:1032BC0043F00803A2F840302268B2F840309BB2C9
:1032CC0043F00403A2F840302068FEF741FB10F4F1
:1032DC00805F02D12046FCF7E3FF2068FEF738FB45
:1032EC0010F4007F0BD02268B2F844309BB223F468
:1032FC0000739BB2A2F844302046FCF7BFFF206855
:10330C00FEF726FB10F4807F08D02268B2F8443018
:10331C009BB223F480739BB2A2F8443010BD00BF63
:10332C0038B54AB2002A05DA01F07F035B01283375
:10333C00034403E04B0103F50273034401249C7026
:10334C0001F07F041C70D20F5A7090F8E823012A08
:10335C0011D00546012280F8E82319460068FEF7D3
:10336C0069FA24B905F57B712868FEF7F5FA002097
:10337C0085F8E80338BD022038BD00BF10B54AB24D
:10338C00002A05DA01F07F035B012833034403E0D4
:10339C004B0103F50273034400249C7001F07F0180
:1033AC001970D20F5A7090F8E823012A0BD00446FA
:1033BC00012280F8E82319460068FEF773FA002012
:1033CC0084F8E80310BD022010BD00BFF0B583B037
:1033DC0000263446D5E00122A2400B6813409A42E5
:1033EC0040F0CE804D68122D2DD00BD8022D27D059
:1033FC0003D85DB3012D1ED035E0032D30D0112D37
:10340C001BD030E0614FBD4220D008D8A7F5801703
:10341C00BD421BD007F58037BD4224D116E05C4F6E
:10342C00BD4213D007F58037BD420FD0A7F58017EA
:10343C00BD4218D10AE0CE6815E0CE68043612E021
:10344C00CE6808360FE0CE680C360CE08D684DB1B6
:10345C00012D02D10261082605E04261082602E036
:10346C00002600E00426FF2B01D8864601E000F17F
:10347C00040EFF2B01D8A20002E0A4F10802920076
:10348C00DEF800700F25954027EA050506FA02F2D2
:10349C002A43CEF800204A6812F0805F70D03D4A73
:1034AC00956945F001059561926902F0010201925E
:1034BC00019AA708BD1C384A52F8255004F00302A3
:1034CC0092004FF00F0E0EFA02FE25EA0E0E334D4F
:1034DC00A8420DD005F58065A8420BD005F5806596
:1034EC00A84209D005F58065A84207D1032506E05E
:1034FC00002504E0012502E0022500E0042505FA80
:10350C0002F24EEA02020237234D45F827204A68A0
:10351C0012F4803F05D005F580652A681A432A60AD
:10352C0004E01F4D2A6822EA03022A604A6812F45A
:10353C00003F04D01A4D6A681A436A6004E0184DC3
:10354C006A6822EA03026A604A6812F4801F04D097
:10355C00134DAA681A43AA6004E0114DAA6822EA26
:10356C000302AA604A6812F4001F04D00C4DEA68EA
:10357C001343EB6004E00A4DEA6822EA0303EB60B4
:10358C0001340F2C7FF627AF03B0F0BD00002110E3
:10359C000000311000100240000001400008014002
:1035AC00000401400AB101617047090401617047D0
:1035BC00074AD36823F4E0631B041B0C000200F4DD
:1035CC00E060184340F0BF6040F40030D0607047BA
:1035DC0000ED00E030B4164BDB68C3F30223C3F1FB
:1035EC000704042C28BF04241D1D062D01D9DD1E43
:1035FC0000E00025012303FA04F4013C2140A9401A
:10360C00AB40013B1A400A43002806DA00F00F00D9
:10361C001201D2B2074B1A5407E01201D2B200F1D8
:10362C00604000F5614080F8002330BC704700BF5B
:10363C0000ED00E014ED00E0420900F01F00012352
:10364C0003FA00F0014B43F82200704700E100E060
:10365C000138B0F1807F0AD2064B5860F021064A3F
:10366C0082F823100020986007221A60704701200E
:10367C00704700BF10E000E000ED00E0042805D129
:10368C00054A136843F0040313607047024A136839
:10369C0023F004031360704710E000E0704700BF94
:1036AC0008B5FFF7FBFF08BD10B50446FFF7F4F9AA
:1036BC00064BA3FB00308009FFF7CAFF002221460E
:1036CC004FF0FF30FFF786FF002010BDD34D621086
:1036DC0008B5074A136843F0100313600320FFF783
:1036EC0067FF0020FFF7E0FFFCF71AFF002008BD82
:1036FC0000200240024A136801331360704700BF78
:10370C00A8180020014B1868704700BFA8180020AB
:10371C0010B582B00190FFF7F5FF0446FFF7F2FFFA
:10372C00001B019B9842F9D302B010BD0F4B1A68D5
:10373C0042F001021A6059680D4A0A405A601A6830
:10374C0022F0847222F480321A601A6822F48022E9
:10375C001A605A6822F4FE025A604FF41F029A60F3
:10376C004FF00062034B9A60704700BF001002409C
:10377C000000FFF800ED00E0002103E00B4B5B586C
:10378C00435004310A480B4B42189A42F6D30A4A6A
:10379C0002E0002342F8043B084B9A42F9D3FFF7AE
:1037AC00C5FF00F013F8FDF73FF870475C3D0008CB
:1037BC000000002064160020641600206023002006
:1037CC00FEE70A22002100F0C7B800000E4B70B5CE
:1037DC001E460E4C0025E41AA410A54204D056F83F
:1037EC00253098470135F8E700F0E2F9084B094C11
:1037FC001E46E41AA4100025A54204D056F8253024
:10380C0098470135F8E770BD543D0008543D000859
:10381C00543D0008583D0008024B0146186800F062
:10382C00FBB800BF601600207047704738B5064CD7
:10383C00002305460846236000F0ACF9431C02D176
:10384C00236803B12B6038BD5C2300202DE9F047C1
:10385C000F4680463F48D0F800903D4615F8014B86
:10386C0009EB0400407800F0080000F0FF0608B1F6
:10387C002F46F2E72D2C03D1BD1C7C78012603E0EA
:10388C002B2C04BF7C78BD1C13B1102B0AD15BE030
:10389C00302C57D1287800F0DF0058284DD16C78A7
:1038AC0010230235002E14BF4FF0004C6FF0004C6B
:1038BC00BCFBF3FA0027384603FB1ACC09EB040EC9
:1038CC009EF801E01EF0040F01D0303C0BE01EF01E
:1038DC00030E1BD0BEF1010F0CBF4FF0370E4FF093
:1038EC00570ECEEB0404A34210DDB7F1FF3F0AD014
:1038FC00504506D801D1644503DC03FB0040012789
:10390C0001E04FF0FF3715F8014BD7E77B1C0CD1CA
:10391C00002E4FF0220314BF4FF000406FF0004018
:10392C00C8F800302AB9BDE8F08706B1404272B140
:10393C0007B1691E1160BDE8F0873024002BB1D1AE
:10394C000823AFE70A23ADE7302CA3D0AAE7BDE8E4
:10395C00F08700BF6C15002013460A46014602484A
:10396C000068FFF773BF00BF601600202DE9F84315
:10397C008946254F0646FFF757FFBB68DFF8948052
:10398C005D68A8F1110425F003052C44C9EB04046F
:10399C00B4FBF8F4013C08FB04F4444505DA30466A
:1039AC00FFF743FF0020BDE8F88300213046FFF706
:1039BC003DFFBB682B449842F1D161423046FFF782
:1039CC0035FF013010D100213046FFF72FFFBA68C8
:1039DC00831A0F2BE3DD0D4943F001030968536093
:1039EC00401A0B490860DAE7BB68094A2D1B45F001
:1039FC0001055D60136830461C1B1460FFF715FF52
:103A0C000120BDE8F88300BF5C1100206815002080
:103A1C00B0180020800000002DE9F04104468846D3
:103A2C00002900F0AD80FFF7FFFE58F8042C554D2F
:103A3C0022F00100A8F108031F18A9687E688F42C4
:103A4C0026F0030602F001021BD130443AB958F8B3
:103A5C00082C9B1A99681044DA68CA60916040F08F
:103A6C0001025A60AB60484B1B68984204D3474B29
:103A7C0020461968FFF77AFF2046BDE8F041FFF7B2
:103A8C00D4BE7E607AB958F8081C05F1080E5B1A92
:103A9C0008449968714508D0D3F80CE0C1F80CE0E3
:103AAC00CEF8081002E0002200E00122B9194968A2
:103ABC00C9070ED43044B96842B9354EB14205D16C
:103ACC006B612B610122D960996002E0FE68CE60C7
:103ADC00B16040F0010159601850002ACCD1B0F50A
:103AEC00007F12D2C0088110012202FA01F16A682B
:103AFC0001300A436A6055F8301005EBC002083AF1
:103B0C00DA60996045F8303038E0420A042A02D86D
:103B1C008209383215E0142A01D85B3211E0542A9C
:103B2C0002D8020B6E320CE0B2F5AA7F02D8C20B9F
:103B3C00773206E040F254518A429ABF820C7C32B2
:103B4C007E22511C55F8311005EBC2068E420D4FEA
:103B5C000BD10121921001FA02F2796811437960BC
:103B6C00314608E089688E4204D04A6822F003028C
:103B7C009042F7D3CE68DE609960B360CB607BE790
:103B8C00BDE8F0815C11002064150020AC18002009
:103B9C0064110020044B0246196809B903491960E5
:103BAC00186802441A607047D8180020602300205F
:103BBC00F8B500BFF8BC08BC9E467047F8B500BF0E
:083BCC00F8BC08BC9E467047DE
:103BD40002030405060708090A0B0C0D0E0F10104A
:103BE40001020000536572766F436F6E74726F6CDE
:103BF4002044656D6F000000526F636B65745363FE
:103C040069656E746973742E696E666F00000000D6
:103C1400303030303030303030303141000000004E
:103C240043444320436F6E66696700004344432066
:103C3400496E7465726661636500000000000000EF
:103C440000000000010203040607080900202020E8
:103C54002020202020202828282828202020202038
:103C64002020202020202020202020202088101008
:103C74001010101010101010101010101004040464
:103C84000404040404040410101010101010414122
:103C94004141414101010101010101010101010110
:103CA4000101010101010101101010101010424224
:103CB40042424242020202020202020202020202E0
:103CC4000202020202020202101010102000000080
:103CD40000000000000000000000000000000000E0
:103CE40000000000000000000000000000000000D0
:103CF40000000000000000000000000000000000C0
:103D040000000000000000000000000000000000AF
:103D1400000000000000000000000000000000009F
:103D2400000000000000000000000000000000008F
:103D3400000000000000000000000000000000007F
:103D4400000000000000000000000000004300002C
:043D54003101000831
:043D58000D01000851
:103D5C004D0100085901000889010008650100089F
:103D6C00A5010008C9010008ED01000804030904BD
:103D7C0012010002020200408304405700020102BB
:103D8C000301000055040008290400082D04000854
:103D9C0031040008536572766F207365742E2E2ED5
:103DAC000A000000000000000000000000000000FD
:103DBC0000000000000000000000000000000000F7
:103DCC0000000000000000000000000000000000E7
:103DDC0000000000000000000000000000000000D7
:103DEC0000000000000000000000000000000000C7
:10459C0000000000010000007B3030307D0A00007C
:1045AC0000000000000000000000000000000000FF
:1045BC0000000000000000000000000000000000EF
:1045CC0000000000000000000000000000000000DF
:1045DC0000000000000000000000000000000000CF
:104D9C00000000000000000009024300020100C0F6
:104DAC003209040000010202010005240010010573
:104DBC0024010001042402020524060001070582D7
:104DCC000308001009040100020A00000007050195
:104DDC00024000000705810240000000A9110008F4
:104DEC006D110008F9100008000000007110000897
:104DFC005D100008C9100008000000000000000051
:104E0C0000000000A510000899100008B11000085F
:104E1C00BD1000080A06000200000040010000005E
:104E2C0009074300020104C0320904000001020218
:104E3C0001000524001001052401000104240202D4
:104E4C000524060001070582030800FF0904010080
:104E5C00020A00000007050102400000070581025C
:104E6C004000000009024300020100C032090400A6
:104E7C0000010202010005240010010524010001BB
:104E8C000424020205240600010705820308001011
:104E9C0009040100020A00000007050102000200DB
:104EAC00070581020002000000A24A040000000075
:104EBC00000000005C1100205C1100206411002037
:104ECC00641100206C1100206C1100207411002062
:104EDC00741100207C1100207C1100208411002012
:104EEC00841100208C1100208C11002094110020C2
:104EFC00941100209C1100209C110020A411002072
:104F0C00A4110020AC110020AC110020B411002021
:104F1C00B4110020BC110020BC110020C4110020D1
:104F2C00C4110020CC110020CC110020D411002081
:104F3C00D4110020DC110020DC110020E411002031
:104F4C00E4110020EC110020EC110020F4110020E1
:104F5C00F4110020FC110020FC1100200412002090
:104F6C00041200200C1200200C120020141200203D
:104F7C00141200201C1200201C12002024120020ED
:104F8C00241200202C1200202C120020341200209D
:104F9C00341200203C1200203C120020441200204D
:104FAC00441200204C1200204C12002054120020FD
:104FBC00541200205C1200205C12002064120020AD
:104FCC00641200206C1200206C120020741200205D
:104FDC00741200207C1200207C120020841200200D
:104FEC00841200208C1200208C12002094120020BD
:104FFC00941200209C1200209C120020A41200206D
:10500C00A4120020AC120020AC120020B41200201C
:10501C00B4120020BC120020BC120020C4120020CC
:10502C00C4120020CC120020CC120020D41200207C
:10503C00D4120020DC120020DC120020E41200202C
:10504C00E4120020EC120020EC120020F4120020DC
:10505C00F4120020FC120020FC120020041300208B
:10506C00041300200C1300200C1300201413002038
:10507C00141300201C1300201C13002024130020E8
:10508C00241300202C1300202C1300203413002098
:10509C00341300203C1300203C1300204413002048
:1050AC00441300204C1300204C13002054130020F8
:1050BC00541300205C1300205C13002064130020A8
:1050CC00641300206C1300206C1300207413002058
:1050DC00741300207C1300207C1300208413002008
:1050EC00841300208C1300208C13002094130020B8
:1050FC00941300209C1300209C130020A413002068
:10510C00A4130020AC130020AC130020B413002017
:10511C00B4130020BC130020BC130020C4130020C7
:10512C00C4130020CC130020CC130020D413002077
:10513C00D4130020DC130020DC130020E413002027
:10514C00E4130020EC130020EC130020F4130020D7
:10515C00F4130020FC130020FC1300200414002086
:10516C00041400200C1400200C1400201414002033
:10517C00141400201C1400201C14002024140020E3
:10518C00241400202C1400202C1400203414002093
:10519C00341400203C1400203C1400204414002043
:1051AC00441400204C1400204C14002054140020F3
:1051BC00541400205C1400205C14002064140020A3
:1051CC00641400206C1400206C1400207414002053
:1051DC00741400207C1400207C1400208414002003
:1051EC00841400208C1400208C14002094140020B3
:1051FC00941400209C1400209C140020A414002063
:10520C00A4140020AC140020AC140020B414002012
:10521C00B4140020BC140020BC140020C4140020C2
:10522C00C4140020CC140020CC140020D414002072
:10523C00D4140020DC140020DC140020E414002022
:10524C00E4140020EC140020EC140020F4140020D2
:10525C00F4140020FC140020FC1400200415002081
:10526C00041500200C1500200C150020141500202E
:10527C00141500201C1500201C15002024150020DE
:10528C00241500202C1500202C150020341500208E
:10529C00341500203C1500203C150020441500203E
:1052AC00441500204C1500204C15002054150020EE
:1052BC005415002000000200FFFFFFFF503C0008C7
:1052CC0000000000000000000000000000000000D2
:1052DC0000000000000000000000000000000000C2
:1052EC00513D00080000000000000000000000001C
:1052FC0000000000000000000000000000000000A2
:10530C000000000000000000000000000000000091
:10531C000000000000000000000000000000000081
:10532C000000000000000000000000000000000071
:10533C000000000000000000000000000000000061
:10534C000000000000000000000000000000000051
:10535C000000000000000000000000000000000041
:10536C000000000000000000000000000000000031
:10537C000000000000000000000000000000000021
:10538C000000000000000000000000000000000011
:10539C000000000000000000000000000000000001
:1053AC0000000000000000000000000000000000F1
:0453BC007015002048
:040000050800378533
:00000001FF
